:04091E000208000AC1
:1008D100E4F50AF50BD3E50B9FE50A9E501DE4F5FF
:1008E1000CF50D050DE50D7002050C647B450C70D2
:0C08F100F2050BE50B70DE050A80DA2230
:10088C00758C3C758AB05389F0438901D2A9D2AFDB
:10089C00D28CE4F5907F64FE1208D1E4F50AF50BD6
:1008AC00E59025E0F5904390017F647E001208D11D
:1008BC00050BE50B7002050AC39408E50A648094E5
:0508CC008040DD80CD3D
:03000B000208FDEB
:1008FD00C0E0758C3C758AB0E509150970021508C4
:10090D00E50945087008F50875090A63A0FFD0E0F0
:01091D0032A7
:03000000020800F3
:0C080000787FE4F6D8FD75810F020847F0
:10080C0002088CE493A3F8E493A34003F68001F26E
:10081C0008DFF48029E493A3F85407240CC8C333ED
:10082C00C4540F4420C8834004F456800146F6DFBC
:10083C00E4800B010204081020408090091EE47E25
:10084C00019360BCA3FF543F30E509541FFEE493B1
:10085C00A360010ECF54C025E060A840B8E493A378
:10086C00FAE493A3F8E493A3C8C582C8CAC583CAA3
:10087C00F0A3C8C582C8CAC583CADFE9DEE780BE5B
:0109220000D4
:00000001FF
