:10084A00E4F50CF50DD3E50D9FE50C9E501DE4F57E
:10085A000EF50F050FE50F7002050E647B450E704D
:0C086A00F2050DE50D70DE050C80DA22B1
:10080000750A03750BE8E4F508F509F50EF50FC355
:10081000E50F94E8E50E64809483502C850E0885DE
:100820000F09D2A0AF09AE0812084AC2A0C3E50B57
:100830009509FFE50A9508FE12084A7464250FF52C
:0A0840000FE4350EF50E80C780FEB0
:030000000208767D
:0C087600787FE4F6D8FD75810F020800C1
:00000001FF
