:0D17D90054616E20736F3A20252E36660095
:10160100E4F58CF58A5389F043890920B2FD30B2A3
:10161100FDD28C20B2FDC28CAF8C751C008F1DE5F4
:101621001D751D00F51CAF8AEF421DE4F529F52853
:101631007527C07526C0FFFE7D207C41121450C065
:1016410004C005C006C007AC1CAD1DEC1209ABD02F
:1016510003D002D001D000120800E4FBFAF978406F
:0C1661001208008F1B8E1A8D198C1822A5
:1016B50012166DE4FDFF1217661216017525FF75EA
:1016C50026177527D9AB1BAA1AA919A818E4FFFE76
:1016D5007D807C3F1209098F2B8E2A8D298C287BD2
:1016E500007A007908120F087B007A007908121633
:0316F500F880FE7C
:1017B500E4FDFCC3ED9FEC9E50070DBD00010C80C0
:0117C500F231
:0117C6002200
:10174600E4FDFCC3ED9FEC9E5015E4FBFA0BBB00D9
:0F175600010AEB647B4A70F50DBD00010C80E4C5
:011765002261
:0317A20012178695
:1017A500D2A17F037E001217B5C2A17F320217B501
:10178600EF139284EFC313139285EF1313543F1391
:0C1796009286EF131313541F1392872246
:1017C700AB07EBC4540FFF1217A2AF031217860221
:0217D70017A554
:0C17E6007F011217C77F0A7E000217B5B2
:10166D00E4FF1217867F147E00121746C2A07F0377
:10167D001217A27F057E001217461217A57F647EF2
:10168D00001217461217A57F021217861217A57F93
:10169D00281217C77F0C1217C77F061217C712170C
:0816AD00E67F147E00021746DF
:10176600EF7006ED2480FA8004ED24C0FA7FE87E4F
:10177600031217B5AF021217C77F327E000217B5E4
:1016F8008B228A238924AB22AA23A924120DF0FF66
:101708006014D2A01217C7C2A074012524F524E4DE
:071718003523F52380E022D8
:0817FE00D2A01217C7C2A022FD
:10080000EC4D6011E8497017ED33EC3304600DE4F2
:10081000FCFFFEFD22E933E8330470F8020A1912E6
:1008200009E458046009E4CC2481500628500902E8
:100830000A23284003020A20C0E0EB4A7044B98032
:1008400006D0E0FB020A0FEF4E701CBD8008EBFFE4
:10085000EAFEE9FD80EBE98DF0A4FEE5F00208E98F
:10086000E9CDF9EAFEEBFFEF89F0A4FCE5F0CE89D3
:10087000F0A42EFFE435F0CD89F0A42DFEE435F090
:100880008067EF4E7005BD80D780C3EF8BF0A4ACBE
:10089000F0EE8BF0A42CFCE435F0F8EF8AF0A42CF9
:1008A000E5F038FCE433CB8DF0A42CFCE5F03BF80C
:1008B000EE8AF0A42CFCE5F038F8E433CF89F0A4FC
:1008C0002CFCE5F038CF3400CE89F0A42FFFE5F002
:1008D0003EFEE433C98DF0A42EFEE5F039CD8AF05A
:1008E000A42FFFE5F03EFEE43DFD33D0E0FB5007D2
:1008F0000BBB000F020A23EC2CFCEF33FFEE33FEA0
:06090000ED33FD0209FBCE
:10090600020A23EC5D046005E859047003020A1923
:100916001209E4580460F6EC4860F2EC7004FDFE3F
:10092600FF22C860DB2481C85009C39860025006C4
:10093600020A209850CAF582E9294B4A7005AB8213
:10094600020A0F75F0007C1A7880C3EF9BEE9AEDD1
:1009560099400DC3EF9BFFEE9AFEED99FDE842F03C
:10096600DC23ACF0D0E0FFD0E0FED0E0FDAB82208F
:10097600E7101BEB60BAEC2CFCEF33FFEE33FEED19
:1009860033FD0209FBE803F830E705C0F075F00017
:10099600EF2FFFEE33FEED33FD40B830E7C280AAFD
:1009A60075F020800E75F010800575F0087D007ECC
:1009B600007F003392D530D503120E48EC33401039
:1009C600EF33FFEE33FEED33FDEC33FCD5F0ED22D5
:0E09D600E5F0247EA2D513CC92E7CDCEFF2211
:100EAC00E5392425F8E60539227822300702782521
:100EBC00E475F001120E76020DF02000EB7F2ED2BD
:100ECC00008018EF540F2490D43440D4FF30040B1E
:100EDC00EF24BFB41A0050032461FFE53A600215F9
:100EEC003A053DE53D7002053C30070D7822E4756E
:100EFC00F001120E76EF020E3602171F7403D207A2
:100F0C008003E4C207F5398B228A238924E4F53A5D
:100F1C00F53CF53DE53A60077F20120EE780F5754C
:100F2C003BFFC201C200C202C203C205C206C20814
:100F3C00120EB5FF700D3007057F00120EF8AF3D95
:100F4C00AE3C22B4255FC2D5C204120EB5FF24D02C
:100F5C00B40A00501A75F00A783A30D50508B6FF75
:100F6C000106C6A426F620D5047002D20380D9242B
:100F7C00CFB41A00EF5004C2E5D2040211E5D2013D
:100F8C0080C6D20080C0D20280BCD2D580BAD20535
:100F9C0080B47F20120EE72002077401B53A00409E
:100FAC00F1120EACFF120EE7020F20D208D206800F
:100FBC0095120EACFB120EACFA120EACF94A4B7039
:100FCC000679DC7A127BFF20022EE53A602A7E003D
:100FDC008E82758300120E0960060EEE653B70F072
:100FEC00C2D5EBC0E0EAC0E0E9C0E0EE121245D099
:100FFC00E0F9D0E0FAD0E0FB120DF0FF60AAEBC0F4
:10100C00E0EAC0E0E9C0E0120EE7D0E02401F9D03C
:10101C00E03400FAD0E0FBE53B0460DCD53BD98042
:10102C0087D20280A212122860F7E53B70010412ED
:10103C000C01A93B600DE53B600914F53B1212CF86
:10104C00EF60F3EA30E702F404C3995077EAF42531
:10105C003B0430E701E404F53B800D12122860C11B
:10106C00EA053B253B120C01EA7838F630E701E43F
:10107C00253B04D53B0420050114121245E4C0E0C5
:10108C001212CF7838E6601320E70714F6120ECF51
:10109C00802204F6D0E014C0E07F00120ECFE53BB6
:1010AC006007120EC6153B800B300503120EC6D01E
:1010BC00E0020F20D0E00480C512122860A0E53BAE
:1010CC0004120C017838EAF6E53B200502600104B5
:0510DC0024041212457E
:1010E10074FF04C0E01212CF120ECFE53B200502BF
:1010F1006003120EC6D0E0B53BE87F45120ED978E9
:1011010038E67F2B30E7047F2DF404C0E0120EE7B0
:10111100D0E075F00A84C0F0120ED0D0E0120ED0EB
:10112100020F20791080027908C206C2088008D215
:10113100D5790A8004790AC2D5E53B047002F53BF2
:10114100E4FAFDFEFF120EACFC7B08200113120E27
:10115100ACFD7B1030000A120EACFE120EACFF7B10
:1011610020EC3382D592D55013C3E43000069FFFA3
:10117100E49EFEE42001039DFDE49CFCE4CBF8C267
:1011810001EC700CCFCECDCCE824F8F870F38017C9
:10119100C3EF33FFEE33FEED33FDEC33FCEB33FBFA
:1011A100994002FB0FD8E9EB300105F8D0E0C448C3
:1011B100B201C0E00AEC4D4E4F78207B0070C2EACC
:1011C100B53B0040BCC0E0121247D0F0D0E0200196
:1011D10004C4C0E0C4B201C0F0120ED0D0F0D5F00A
:1011E100EB020F20120E860FBD531124580F8E4CA7
:1011F1000F8A4211284F1130441130490FA3431176
:10120100365510674610C54510314712FC500F92F4
:101211002D0F962E0FB92B0F9A230FB72012E52A07
:101221000F524800000FB1E53BB4FF03753B0612B6
:101231000EACFC120EACFD120EACFE120EACFF7821
:1012410031020C30790AA2D5200314300509B910F6
:10125100020404B9080104A2D520060250010420A9
:1012610002689202B53A005034C0E07F2030031981
:101271007F30A20272067205500F12129EC202C284
:1012810006C205C2087F30800F300503E9C0E012B5
:101291000EE7300503D0E0F9D0E0B53ACC300517C0
:1012A1007F30B9100C120EE77F583004077F788029
:1012B10003B90803120EE73002057F2D020EE77F06
:1012C100202008F87F2B2006F322920280CF7F0096
:1012D100B4070050052431F8E6FF22286E756C6CC6
:1012E1002900D201120EAC3001F8C201783A30D592
:1012F1000108F6020F522D50434958120EAC240337
:10130100B405004001E49012F793120ED8743A121A
:0A1311000ED8D203753A040211242D
:101450008F258E248D238C22E4FFFE7D807C3FAB84
:1014600025AA24A923A822120B407009AF25AE2477
:10147000AD23AC2222AF25AE24AD23AC22120A2E1E
:10148000FBAF29AE28AD27AC26120A2EFFBF0108FC
:10149000E4FFFE7D807C3F22EF64046022EB640465
:1014A000601DBB0127E4FFFEFDFCAB29AA28A9278C
:1014B000A826120B4060084006E4FFFEFDFC2274E3
:1014C000FFF529F528F527F52602155EE4F52AF53E
:1014D0002BFFFEFDFCAB25AA24A923A822120B405A
:1014E000504BAF29AE28AD27AC26120BCA8E2A8FDF
:1014F0002BAC2AAD2BEC1209ABC8ECC8C9EDC9CA9C
:10150000EECACBEFCBAF29AE28AD27AC26120A4BE3
:10151000E4FBFAF9F8120B4070A5AF25AE24AD2319
:10152000AC22120BB98F258E248D238C22AF25AED1
:1015300024AD23AC2212134FAB29AA28A927A82631
:1015400012080012159F8F298E288D278C26E52BD7
:1015500030E00B120BB98F298E288D278C26AF29EE
:07156000AE28AD27AC2622E6
:1009E400E9D2E7C933E833F892D5EDD2E7CD33EC59
:0709F40033FC5002B2D522D2
:1009FB00EC30E7100FBF000C0EBE00080DBD00045D
:100A0B000BEB6014A2D5EB13FCED92E7FD2274FF08
:100A1B00FCFDFEFF22E480F8A2D574FF13FC7D8061
:030A2B00E480EF75
:100A2E00ED33EC33601004700FED547F70057402DB
:0A0A3E0092E0227404220422E42254
:100A4800020A19E86480F8E933E83360110460F0B9
:100A5800ED33EC337009E8FCE9FDEAFEEBFF220414
:100A680060DED3EB9FEA9EE99DE8C2E78CF0C2F70F
:100A780095F0400CE8CCF8E9CDF9EACEFAEBCFFBDB
:100A88001209E485D0F05804700320D5B3E8047047
:100A9800075002B2D5020A2392D5EC0460F7E4CCE1
:100AA800C0E0C398F8603B94186008400DD0E0FBA4
:100AB8000209FBE4FBFAC9FC8028E830E406E4C933
:100AC800FBE4CAFCE830E305E4C9CACBFCE85407F8
:100AD8006010F8C3E913F9EA13FAEB13FBEC13FC03
:100AE800D8F130F52FC3E49CFCEF9BFFEE9AFEEDA6
:100AF80099FDD0E0FBEF4E4D4C701222DB03020A49
:100B080020EC2CFCEF33FFEE33FEED33FDED30E748
:100B1800EB0209FBEF2BFFEE3AFEED39FDD0E0FBCF
:100B280050130BBB0003020A23ED13FDEE13FEEF77
:080B380013FFEC13FC0209FBA2
:100B400074F8CC6480CCC86480C8F58204604FC35C
:100B5000EB9FF5F0EA9E42F0E99D42F0E89C45F0FB
:100B6000603C501DE5825FFFE582D313CB5BCBF485
:100B70002B5582FB50280ABA002409B900200880AE
:100B80001DE5825BFBE582D313CF5FCFF4C3132F48
:100B90005582FF50090EBE00050DBD00010CC3EBD0
:100BA0009FF5F0EA9E42F0E99D42F0E89C45F06036
:090BB00007CC4820E701B3EC2258
:100BB900ED33EC33600A047003BD8004ECB2E7FC4A
:010BC9002209
:100BCA00EDD2E7CD33EC3392D524814006E4FFFE23
:100BDA00FDFC22FCE4CFCECDCC24E0501174FF8082
:100BEA00EDC3CC13CCCD13CDCE13CECF13CF04701F
:070BFA00F030D5DE020E48C9
:100C0100F920E72824F950037907E4F42402FB18BA
:100C1100DBFDE624FB5014E9600DE4F618E604F66A
:0F0C2100B40A08E4F6D9F57401F60A22C2D52206
:100C3000ED33EC3392D5FA602AB4FF33EDC2E77B93
:100C4000FF60067A0C7955E4227A0C795E20D5048F
:100C50007A0C7959224E614E002B494E46002D499F
:100C60004E4600E47A08F608DAFC7B00740722E8B6
:100C7000C0E0ECC0E0EDC0E0EEC0E0EFC0E0EA753F
:100C8000F010A4CAABF075F04DA42BFBE435F0FCDA
:100C9000EA2410FAEB34C5FBEC34D9FCEDC2E7FFD3
:100CA00075F056A4F42411C5F0F434C58FF0A42ACD
:100CB000E5F03BE43CF620E714120D63D0E0FFD0F2
:100CC000E0FED0E0FDD0E0FC1209098014F404122B
:100CD0000D63D0E0FFD0E0FED0E0FDD0E0FC1208D4
:100CE00000D0E0F8E6FAEDD2E7CD33EC332482FB16
:100CF000E4C3CF33CFCE33CECD33CD33DBF37B075D
:100D000075F00A846004F6081B0AE5F0F6088FF017
:100D1000740AA4FFACF08EF0740AA42CFEACF05060
:100D2000010C8DF0740AA42CFDE435F0F608DBDE2E
:030D300074072223
:1015670033DA929E35B16011377FE5FE39218489E0
:101577003AAEC3FF3C1D955B3D6358473E75FDF092
:101587003F3172183F800000C2D5020A23020A19B0
:10159700BD80FA50F3020A20ED33EC330460F17B8F
:1015A7003B7AAA79B8783F120800ED33EC3392D52D
:1015B700247B5011A2D570DB500BED4480240450DE
:1015C70004A2D580CEEFFBEEFAEDF9ECF8120BCAC8
:1015D700EFF582F404FC1209B0120A4FC08290158D
:1015E700677409120DB2ED33CC33D0F092D525F0E4
:0A15F700A2D57001C313CC13FD222E
:10131B003E9248DA3ECCCCCD3F2AAAAB400000002F
:10132B003F8000003F9837F03FB504F33FD744FCB4
:10133B003E3172173EB172173F0515913EDE5BD9F8
:10134B00D2008002C200EDD2E7F8CD33EC3304704B
:10135B000BBD800592D5020A23020A1940FBD31458
:10136B0060F2F5F07C3FEE7A00C39496C8948B4004
:10137B00230AC89469C8941A401A0AC89468C89476
:10138B001F40110AC8945AC89425400805F07A00EA
:10139B00CDC2E7CDC0F08C2C8D2D8E2E8F2FEA2356
:1013AB0023C0E0242BF582E43413F583120E66126E
:1013BB000A4FECC0E0EDC0E0EEC0E0EFC0E0120E73
:1013CB0056A82CA92DAA2EAB2F120A4BD0E0FBD07E
:1013DB00E0FAD0E0F9D0E0B2E7F81209098C2C8DD5
:1013EB002D8E2E8F2F90131B7403120DA3A82CA9D7
:1013FB002DAA2EAB2F120800D0E0600F2437F582F8
:10140B00E43413F583120E66120A4F8C2C8D2D8E3D
:10141B002E8F2FD0E0C3947FFDE49400FC1209AB18
:10142B007B187A727931783F120800A82CA92DAA63
:10143B002EAB2F120A4F30000B7BD97A5B79DE78FB
:05144B003E1208002222
:100D33003F8000004120000042C80000447A0000C8
:100D4300461C400047C35000497424004B1896804A
:100D53004CBEBC205A0E1BCA6753C21C749DC5AE41
:100D6300FB60065407601C2323120D91EB5438607B
:100D730009120D7D120D8C120800ECF8EDF9EEFA54
:100D8300EFCB22EB120D8C80F1543803241C900D11
:100D930033FE93FC0EEE93FD0EEE930ECE93FF22E5
:100DA300C0E0EFFBEEFAEDF9ECF8120800D0E0F545
:100DB300F0EFFBEEFAEDF9ECF8120E56A3A3A3A3A2
:100DC300E8C0E0E9C0E0EAC0E0EBC0E0C0F0120830
:100DD30000120E66A3A3A3A3120A4FD0F0D0E0FB28
:0D0DE300D0E0FAD0E0F9D0E0F8D5F0D4224D
:030000000217F2F2
:0C17F200787FE4F6D8FD75813D0216B545
:100DF000BB010689828A83E0225002E722BBFE0201
:090E0000E32289828A83E4932233
:100E0900BB010CE58229F582E5833AF583E022509E
:100E190006E92582F8E622BBFE06E92582F8E222E8
:0D0E2900E58229F582E5833AF583E4932202
:100E3600BB010689828A83F0225002F722BBFE019B
:020E4600F32295
:0E0E4800C3E49FFFE49EFEE49DFDE49CFC22BB
:100E5600E493FC740193FD740293FE740393FF22E2
:100E6600E493F8740193F9740293FA740393FB22E2
:100E7600FAE6FB0808E6F925F0F618E6CA3AF6227D
:100E8600D083D082F8E4937012740193700DA3A3FB
:100E960093F8740193F5828883E47374029368600F
:060EA600EFA3A3A380DF0F
:10171F00EFB40A07740D12172A740A309811A8999A
:10172F00B8130CC2983098FDA899C298B811F6302A
:07173F0099FDC299F5992202
:00000001FF
